:020000040800F2
:10000000B80F002001010008E11B00081F090008CB
:100010005D0B00081D0300086336000800000000A7
:10002000000000000000000000000000892D000812
:10003000410700080000000081230008192F000874
:100040001B0100081B0100081B010008312B0008E0
:100050001B0100081B0100081B0100081B01000810
:10006000890700081B0100081B0100081B0100088C
:100070001B0100081B0100081B0100081B010008F0
:100080001B0100081B0100081B0100081B010008E0
:100090001B0100081B0100081B0100081B010008D0
:1000A0001B0100081B0100081B0100081B010008C0
:1000B0007D2F0008BD2F00081B0100081B01000850
:1000C0001B0100081B0100081B0100081B010008A0
:1000D0001B010008AD3300081B010008E5330008D0
:1000E0001B0100081B0100081B010008DFF80CD0F1
:1000F00000F018F80048004751390008B80F0020F8
:100100000648804706480047FEE7FEE7FEE7FEE7B1
:10011000FEE7FEE7FEE7FEE7FEE7FEE71D2F00082D
:10012000ED000008064C074D06E0E06840F00103D2
:1001300094E8070098471034AC42F6D3FFF7DAFF93
:10014000306400085064000870B58C1810F8015B2A
:1001500015F0070301D110F8013B2A1106D110F860
:10016000012B03E010F8016B01F8016B5B1EF9D164
:100170002B0705D40023521E0DD401F8013BFAE7EA
:1001800010F8013BCB1A921C03E013F8015B01F855
:10019000015B521EF9D5A142D8D3002070BD0000EA
:1001A0002DE9F05F06460F4690469946DDE90AAB19
:1001B000002440F2B270864203DB40F633008642F0
:1001C00002DD0120BDE8F09F40F2B2750AE028464A
:1001D00000F0F2FB10B11948044401E0184804444F
:1001E000681C85B2B542F2DB781EC7B2002510E06C
:1001F0001448405D40F2A321484304EBC01430464C
:1002000000F0DAFB18B1012D01D10F480444681C3D
:1002100085B2BD42ECDBA8F10100A321484304EB09
:10022000C014C9EB4910C0EB092004EB0014CAEB61
:100230000A1004EB80045C44A0B2C3E70085E2012D
:100240008033E10154400008805101002DE9FC5F3A
:1002500004460D4616461F46DDE90D9ADDF830804E
:100260000AF0FF0009F0FF0108F0FF03FAB2CDE940
:100270000010F1B22846FFF793FF83460D4800783F
:100280000D490978CDE900100C4803780C48027834
:100290000C4801780C480088FFF782FFABEB0000A8
:1002A0000A4921F814000020094921F81400BDE88A
:1002B000FC9F0000300000202F0000202E000020B6
:1002C0002D0000202C0000202A0000201C0000200F
:1002D0001400002010B5012002F08EFA002002F078
:1002E0008BFA10BD08B5014600200090034800902D
:1002F0000098084400900098008808BD006C0040F9
:1003000008B500220092044A0092009A024400922A
:10031000009A116008BD0000006C004000BFFEE7BD
:1003200008B50121042002F057FA10208DF80300CF
:100330000001ADF8000003208DF802006946044872
:1003400000F050FA4FF48071014800F0DFFA08BD68
:100350000008014010B54FF48071024800F0D8FA4F
:1003600010BD000000080140FEB5044600265EE016
:10037000002010231E2201460090184601F086FE40
:10038000002010231F2201460090202001F07EFE55
:1003900000201023202201460090302001F076FE3C
:1003A00000201023212201460090402001F06EFE23
:1003B00000201023222201460090502001F066FE0A
:1003C0000120102352A200210090602001F091FF33
:1003D00001F08AFD00F00DFB0546102D0DD106B988
:1003E0002BE00120711EC9060090080E102349A2BF
:1003F000202101F07EFF701E86B2632D11D00D2DDD
:100400000FDA01201021CDE90010F106080E0123BA
:100410002A46202101F0BCFE3F4820F81650701CEF
:1004200086B20E2D03D100BF01F01EFC05E000F0E6
:10043000E0FA0F2801D00E2E9AD100BF364800886E
:100440004FF47A7148433449498801EBC10202EB09
:10045000011100EB81003049898801EB810100EB3B
:1004600041002D49C98808442C4921F814002A4824
:1004700040892949098901EB810100EB41002849A4
:1004800021F814002448C0892349898901EB81019E
:1004900000EB4100234921F814001F48408A1E49FF
:1004A000098A01EB810100EB41001F4921F814008A
:1004B0001948C08A1849898A01EB810100EB410083
:1004C0001A4921F814001448408B1349098B01EB99
:1004D000810100EB4100164921F81400084630F86C
:1004E0001400124931F814100F4A32F81420CDE9E3
:1004F000002102900B4830F81430094830F81420DD
:10050000064830F814102046FFF7A0FEFEBD00009C
:100510003A0000005F0000000C0B0020340B0020AC
:10052000440B0020540B0020640B0020740B0020AF
:10053000840B0020F0B585B0044600252AA0006891
:1005400004902AA103C9CDE902012A4810F8140039
:100550008DF80900284810F814008DF80B00052CC0
:100560000ED140208DF80800244800788DF809004D
:1005700041208DF80A0000208DF80B008DF80C004A
:1005800001F072FB002528E001201D4940231A4696
:10059000CDE900100021202001F040FE01F0A4FC74
:1005A00000F027FA064602A8405D20B102A8415D8E
:1005B000144803F017F831461E2003F068F9074687
:1005C000102E01D0102F04D1042104A803F060F8EC
:1005D00005E001F0D7FE681CC5B2052DD4DB00BFD5
:1005E00001F042FB05B0F0BDAA0400AE40003D00A2
:1005F0003E000000640B0020740B00202E00002041
:10060000350000203506002038B5044601210420BD
:1006100002F0E2F84FF40061084800F079F98DF833
:1006200003404FF40060ADF8000003208DF8020095
:100630006946024800F0D6F838BD000000080140C5
:1006400070B5002520E06006040E00BF4FF4006185
:100650000F4800F052F90028F8D01C2000F07DF877
:100660004FF400610A4800F048F910B144F0010469
:1006700001E024F0010400BF4FF40061044800F0E1
:100680003CF90028F8D16D1C082DDCDB204670BD3C
:100690000008014010B5044600F01EF870B1FFF7E5
:1006A000CFFF2070FFF7CCFF6070FFF7C9FFA0708D
:1006B000FFF7C6FFE070FFF7C3FF20712078617875
:1006C0000844A1780844E17808442179884201D19E
:1006D000012010BD0020FCE710B51020FFF794FFAB
:1006E0004FF40061154800F011F9142000F029F8CA
:1006F0004FF40061114800F00BF90420FFF784FF6C
:10070000142000F02AF84FF400610C4800F0F5F8CE
:1007100088B900BF4FF40061084800F0EEF80028E7
:10072000F8D000BF4FF40061044800F0E6F800285C
:10073000F8D1012010BD0020FCE7000000080140B6
:10074000704700B5034603E04FF47A7000F005F8F7
:10075000181EA3F10103F7D100BD00EBC001C900D1
:100760004FF0E0225161002191610521116100BF2C
:100770004FF0E021096901F480310029F8D004210B
:100780004FF0E0221161704710B5042000F016F818
:1007900038B1FFF7DFFD042000F004F8042000F07A
:1007A00007F810BD014908607047000014040140BB
:1007B0000149086070470000140401400146002010
:1007C0000022074B1B6803EA0102054B14331B6828
:1007D0000B4013B10AB1012000E000207047000077
:1007E000000401402DE9F0410246002500260020CA
:1007F00000230024002791F803C00CF00F0591F8A6
:1008000003C00CF0100CBCF1000F03D091F802C033
:100810004CEA050591F800C0BCF1000F31D0146816
:1008200000202BE04FF0010C0CFA00F3B1F800C0EF
:100830000CEA03069E4220D183004FF00F0C0CFA05
:1008400003F7BC4305FA03FC4CEA040491F803C027
:10085000BCF1280F06D14FF0010C0CFA00FCC2F8D5
:1008600014C00AE091F803C0BCF1480F05D14FF065
:10087000010C0CFA00FCC2F810C0401C0828D1D3AF
:100880001460B1F800C0BCF1FF0F34DD54680020E3
:100890002EE000F1080C4FF0010808FA0CF3B1F853
:1008A00000C00CEA03069E4221D183004FF00F0CDA
:1008B0000CFA03F7BC4305FA03FC4CEA040491F874
:1008C00003C0BCF1280F05D100F1080C08FA0CF8A0
:1008D000C2F8148091F803C0BCF1480F07D100F1B1
:1008E000080C4FF0010808FA0CF8C2F81080401C00
:1008F0000828CED35460BDE8F081024600209368FA
:100900000B400BB1012000E00020704741617047AF
:10091000016170470AB1016100E04161704700BFA9
:10092000FEE7000010B502210A48FFF7F1FF0121A0
:100930000848FFF7EDFF00F037F802210548FFF700
:10094000E5FF00F031F801210248FFF7DFFF00F07A
:100950002BF810BD0008014010B502210648FFF732
:10096000D5FF01210448FFF7D3FF00F01DF8022155
:100970000148FFF7CDFF10BD0008014010B502216E
:100980000848FFF7C5FF00F00FF801210548FFF701
:10099000BFFF00F009F801210248FFF7B7FF00F0A0
:1009A00003F810BD00080140032000BF011EA0F1A4
:1009B0000102D0B2FAD170470146CA1701EB927218
:1009C0009210A1EB820292B9642091FBF0F200FB3D
:1009D000121050B94FF4C87091FBF0F200FB1210E6
:1009E00008B9012070470020FCE70120FAE7002049
:1009F000F8E710B500F054F804460A2C00D10024A2
:100A0000204610BD10B510212248FFF776FFC00622
:100A1000000E2149087020212048FFF76EFF1E4973
:100A2000097841EA80001C49087040211B48FFF703
:100A300064FF1949097841EA400017490870082104
:100A40001448FFF75AFF14490978084312490870FF
:100A5000084600780F281AD0084600780F2814D0CE
:100A600008460078072806D00B2806D00D2806D0A7
:100A70000E2808D105E0012010BD0220FCE703206C
:100A8000FAE70420F8E70020F6E70020F4E700206A
:100A9000F2E700000008014034000020000C014093
:100AA00070B563250024002201212A48FFF732FF98
:100AB000FFF7A8FF041E05D000BFFFF7A3FF002823
:100AC000FBD1E5B2012211462248FFF723FF0022A5
:100AD00080212148FFF71EFFFFF794FF041E06D078
:100AE00000BFFFF78FFF0028FBD1E01CC5B2012239
:100AF00080211948FFF70EFF002240211648FFF71A
:100B000009FFFFF77FFF041E06D000BFFFF77AFF43
:100B10000028FBD1A01DC5B2012240210E48FFF7DD
:100B2000F9FE002220210C48FFF7F4FEFFF76AFFD0
:100B3000041E07D000BFFFF765FF0028FBD104F1BA
:100B40000C00C5B2012220210348FFF7E3FE28462E
:100B500070BD0000000C01400008014000BFFEE72E
:100B600008B589E3012010231422002100903020D1
:100B700001F08CFA01201023152200210090402062
:100B800001F084FAFFF735FFFE4908700846007847
:100B90000E280FD1FC480078401CFB49087008461D
:100BA0000078062190FBF1F201FB1200F649087073
:100BB00001F05AF8F3480078102801D1012000E034
:100BC0000020F04909780D2901D1012100E0002120
:100BD000084310B101F048F853E3EB4800780628C9
:100BE0007DD2DFE800F00389FDFCFBFAE6480078DF
:100BF000002875D11023E5A21946009001F079FB79
:100C000000201023162219460090184601F03EFAE3
:100C100000201023172219460090202001F036FAF8
:100C200000201023182219460090302001F02EFADF
:100C300000201023192219460090402001F026FAC6
:100C400001201023D2A220210090002001F051FBAE
:100C500001201023162220210090184601F016FAD8
:100C600001201023172220210090084601F00EFADF
:100C7000012010231A2220210090302001F006FAD2
:100C8000012010231B2220210090402001F0FEF9BA
:100C900001201023BFA230210090002001F029FB89
:100CA000012010231C2230210090184601F0EEF99B
:100CB000012010231D2230210090202001F0E6F9B0
:100CC000012010230C2230210090084601F0DEF9AB
:100CD000012010230D2230210090402001E073E21A
:100CE00009E001F0D3F9012010230E2230210090F9
:100CF000502001F0CBF900BFA3480078012870D143
:100D00001023A2A219460090002001F0F2FA01205F
:100D10001023162219460090184601F0B7F9012059
:100D20001023172219460090202001F0AFF901206E
:100D30001023182219460090302001F0A7F9012055
:100D40001023192219460090402001F09FF900203D
:100D500010238FA22021009001F0CBFA0020102355
:100D6000162220210090184601F090F9002010234F
:100D7000172220210090084601F088F90020102356
:100D80001A2220210090302001F080F90020102349
:100D90001B2220210090402001F078F9012010232F
:100DA0007CA230210090002001F0A3FA0120102342
:100DB0001C2230210090184601F068F90120102310
:100DC0001D2230210090202001F060F90120102325
:100DD0000C2230210090084604E085E116E19AE0FB
:100DE00013E011E001F052F9012010230D2230210F
:100DF0000090402001F04AF9012010230E223021FA
:100E00000090502001F042F900BF5F4800780228AE
:100E10007DD1012010235DA219460090002001F031
:100E200068FA01201023162219460090184601F096
:100E30002DF901201023172219460090202001F0DF
:100E400025F901201023182219460090302001F0C6
:100E50001DF901201023192219460090402001F0AD
:100E600015F9012010234AA220210090002001F052
:100E700040FA01201023162220210090184601F08C
:100E800005F901201023172220210090084601F0C7
:100E9000FDF8012010231A2220210090302001F0BB
:100EA000F5F8012010231B2220210090402001F0A2
:100EB000EDF80020102337A23021009001F019FA3C
:100EC000002010231C2230210090184601F0DEF88B
:100ED000002010231D2230210090202001F0D6F8A0
:100EE000002010230C2230210090084601F0CEF89B
:100EF000002010230D2230210090402001F0C6F880
:100F0000002010230E2230210090502000E001E04C
:100F100001F0BCF800BF1C480078032875D1002000
:100F200010231DA21946009001F0E3F900201023C0
:100F3000232219460090184601F0A8F8002010233B
:100F4000242219460090202001F0A0F80020102350
:100F5000112219460090302001F098F8002010234B
:100F6000122219460090402001F090F80120102331
:100F70000AA220210090002001F0BBF901201023DB
:100F800034220DE03C0600203D060020312E0000FA
:100F9000322E0000332E0000342E0000352E0000CB
:100FA00020210090184601F071F80120102335220D
:100FB00020210090084601F069F801201023312219
:100FC00020210090302001F061F80120102336220A
:100FD00020210090402001F059F801201023AAA2FE
:100FE00030210090002001F084F9012010233722E5
:100FF00030210090184601F049F8012010233822D2
:1010000030210090202001F041F800BF9F48007877
:10101000042868D101201023AFF284021946009001
:10102000002001F066F901201023232219460090C8
:10103000184601F02BF801201023242219460090B5
:10104000202001F023F801201023112219460090DE
:10105000302001F01BF801201023122219460090C5
:10106000402001F013F800201023AFF2D00220211D
:10107000009001F03EF9002010233422202100903E
:10108000184601F003F8002010233522202100909B
:10109000084600F0FBFF00201023312220210090A1
:1010A000302000F0F3FF0020102336222021009092
:1010B000402000F0EBFF0120102373A230210090AC
:1010C000002001F016F90120102337223021009072
:1010D000184600F0DBFF0120102338223021009059
:1010E000202000F0D3FF00BF68480078052868D1B1
:1010F00001201023AFF2601219460090002001F089
:10110000F8F801201023232219460090184600F019
:10111000BDFF01201023242219460090202000F05A
:10112000B5FF01201023112219460090302000F055
:10113000ADFF01201023122219460090402000F03C
:10114000A5FF01201023AFF2AC1220210090002057
:1011500001F0CFF8012010233422202100901846FE
:1011600000F094FF01201023352220210090084632
:1011700000F08CFF0120102331222021009030202C
:1011800000F084FF0120102336222021009040200F
:1011900000F07CFF002010233BA23021009001F0E2
:1011A000A8F800201023372230210090184600F0C4
:1011B0006DFF00201023382230210090202000F005
:1011C00065FF00F091FE00BF00BF314800780028A5
:1011D00052D12E48007806281CD2DFE800F0030721
:1011E0000B0F131701202B49087014E00220294926
:1011F000087010E00320274908700CE004202549FE
:10120000087008E005202349087004E00620214901
:10121000087000E000BF00BF1E480078072829D2F0
:10122000DFE800F028040A10161C220000F036F84F
:101230000120194908701EE000F048F80120164905
:10124000087018E000F084F901201349087012E0DA
:1012500000F01CFA0120104908700CE000F0D4FAEC
:1012600001200D49087006E000F0F8FA01200A4953
:10127000087000E000BF00BF0748007800283FF476
:1012800071AC00BF08BD0000362E00003D060020F6
:101290003C060020400600203E06002010B500F06D
:1012A000E3FC0948007810B1012806D102E001F002
:1012B0001FFF05E001F084F902E001F019FF00BF13
:1012C00000BF00F0D1FC10BD3F0600201CB500F0AF
:1012D000CBFC1EE1FFF78DFB8F4908708F4800782B
:1012E00030B101280CD0022813D0032822D119E0F4
:1012F00000208B490870012048708870C87019E080
:101300000120874908700020487001208870C8704B
:1013100010E0012082490870487000208870012088
:10132000C87007E001207E4908704870887000206E
:10133000C87000BF00BF7A480078102379A200214E
:101340000090084600F0D5FF754800781021CDE9DF
:1013500000107648028802230021402000F018FF88
:101360006F480078102372A200210090502000F0F6
:10137000C0FF6B4800781021CDE900106D4802884D
:1013800002230021582000F003FF65484078102315
:1013900069A219460090002000F0ABFF6048407839
:1013A0001021CDE90010614842880223402000F05E
:1013B000EFFE5B48407810235DA219460090502054
:1013C00000F097FF564840781021CDE900105948A9
:1013D00042880223582000F0DBFE51488078102319
:1013E00057A220210090002000F083FF4C48807815
:1013F0001021CDE900104D48828802232021402091
:1014000000F0C6FE46488078102349A220210090B3
:10141000502000F06EFF424880781021CDE9001086
:101420004448828802232021582000F0B1FE3C4825
:10143000C078102344A230210090002000F059FF12
:101440003748C0781021CDE900103848C2880223FF
:101450003021402000F09CFE3148C078102334A297
:1014600030210090502000F044FF2D48C07810211A
:10147000CDE900102F48C28802233021582000F007
:1014800087FE00F031FD244800780E280FD1234854
:101490000078401C214908700878C11700EB917151
:1014A0008910A0EB81011D4A117000F0DDFB1A4884
:1014B000007820BB00F0D8FB1848007830B1012834
:1014C0000AD002280ED0032818D111E0002001F024
:1014D00043FC00F0C9FB11E0012001F03DFC00F0ED
:1014E000C3FB0BE0022001F037FC00F0BDFB05E080
:1014F000032001F031FC00F0B7FB00BF00BF06483D
:101500000078102805D100200449087000F0ACFBD9
:1015100000E0DFE600BF1CBD3C06002043060020C3
:1015200045060020636C6F636B313A00640B00204A
:101530003A000000740B0020636C6F636B323A005A
:10154000636C6F636B333A00636C6F636B343A00A8
:101550001CB500F089FB012010230C2219460090D5
:10156000202000F093FD012010230E221946009048
:10157000302000F08BFD00F0B7FC7CE00120102350
:101580000C2219460090202000F080FD012010233D
:101590000E2219460090302000F078FD012008232B
:1015A00036A214210090432000F0A3FE0120102158
:1015B000CDE90010324882780323502000F0E8FD86
:1015C00001201023262219460090682000F05EFDBD
:1015D000012010230D2220210090084600F056FD26
:1015E000012010230E2220210090302000F04EFD1B
:1015F0000120082321A226210090432000F079FE3B
:1016000001201021CDE900101D480278032320217C
:10161000502000F0BDFD012010231AA220210090CF
:101620006C2000F066FE00F05FFC012010230C220D
:1016300019460090202000F029FD012010230E22E1
:1016400019460090302000F021FD00F04DFCFFF71E
:10165000D0F90D49087008460078102802D100F032
:1016600003FB09E00848007828B94FF47A70FFF7C7
:1016700068F800F0F9FA81E700BF1CBD3A000000ED
:101680004A060020250000003C0600202DE9F04F0E
:1016900085B000F0E9FA00201023112218210090F3
:1016A000084600F0F3FC00201023122218210090BD
:1016B000282000F0EBFC00201023232218210090AA
:1016C000382000F0E3FC0020102324221821009091
:1016D000482000F0DBFC0020102325221821009078
:1016E000582000F0D3FC00F0FFFB002500BF0020D5
:1016F00004900026632001F0FDFF2AE001F0ECFFDA
:1017000001281FD101F0E2FF374908700A4610781E
:10171000C21700EB12721211A0EB02120B461978DD
:10172000CB1701EB13731B1103EB830302EB430293
:10173000D6B22E48465504983044C0B20490681C76
:10174000C5B202E0632001F0D5FFFFF752F900B9FE
:1017500001E0072DD2DB00BF2448407823490978F7
:1017600001EBC10202EB011100EB81071F4890F869
:10177000028090F8039090F804A090F805B080796A
:10178000401CC0B20390039853464A464146CDE9F7
:1017900000B0384601F042FA00241DE0144830F849
:1017A0001400B8B1134830F81400134931F814107C
:1017B000124A32F81420CDE900210290104830F886
:1017C0001430104830F81420094830F8141020461E
:1017D000FEF73CFD601CC4B2042CDFDB00F044FAD1
:1017E00005B0BDE8F08F000049060020940B0020F2
:1017F000340B0020840B0020740B0020640B0020AD
:10180000540B0020440B002010B50B4800780B4906
:1018100008700B4800780B4908700B4800780B499A
:1018200008700B4800780B49087001200A490870BD
:1018300000F040FA10BD00002D0000204F060020EF
:101840002E000020500600202F000020510600200E
:1018500030000020520600205A0600201CB500F07F
:1018600003FA8DE1FFF7C5F8C7490870C74800784B
:1018700030B101280CD0022813D0032822D119E05E
:101880000020C3490870012048708870C87019E0B2
:101890000120BF4908700020487001208870C8707E
:1018A00010E00120BA4908704870002088700120BB
:1018B000C87007E00120B6490870487088700020A1
:1018C000C87000BF00BFB24800781023B1A2002149
:1018D0000090084600F00DFDB048007810B10128D6
:1018E0002AD114E0AA48007810232D22002100906C
:1018F000282000F0CBFBA648007810232E220021E0
:101900000090382000F0C2FB00F0EEFA29E0A04879
:1019100000781023272200210090282000F0B6FB39
:101920009B4800781023282200210090382000F0E6
:10193000ADFB00F0D9FA14E0954800781023272277
:1019400000210090282000F0A1FB9148007810238E
:10195000282200210090382000F098FB00F0C4FA03
:1019600000BF00BF8A48407810238DA2194600901E
:10197000002000F0BEFC8648407810210223CDE90B
:101980000010894802786C2000F002FC00F0ACFAEC
:101990007F488078102385A220210090002000F04D
:1019A000A8FC8548007810B1012818D10BE07848D0
:1019B0008078102381A220210090682000F099FCFB
:1019C00000F092FA17E07248807810237CA2202160
:1019D00000906C2000F08DFC00F086FA0BE06C4863
:1019E0008078102376A2202100906C2000F081FCEA
:1019F00000F07AFA00BF00BF6548C078102371A2DA
:101A000030210090002000F074FC7148007810B183
:101A1000012818D10BE05E48C078102367A230215E
:101A20000090682000F065FC00F05EFA17E058486E
:101A3000C078102362A2302100906C2000F059FC85
:101A400000F052FA0BE05248C07810235BA230211C
:101A50000090682000F04DFC00F046FA00BF00BF87
:101A600000F042FA484800780E280FD14748007825
:101A7000401C464908700878C11700EB9171891025
:101A8000A0EB8101414A117000F0EEF83F48007868
:101A900001282BD13C480078022803D03A4800782E
:101AA000082823D13848007802280BD13E48007816
:101AB0001E2807DA3C480078401C3B49087000F0BB
:101AC00013FA0EE03048007808280AD1364800782A
:101AD000002806DD34480078401E3349087000F0C5
:101AE00003FA314801783B4801F0A1FD264800780F
:101AF00088BB00F0B9F82548007830B101280DD036
:101B000002280ED0032830D126E02448007802F0C5
:101B100095FA2249087000F0A7F826E000F0A4F832
:101B200023E025480078012809D100202A490870BF
:101B3000214908700021294801F05CFA08E00120E1
:101B4000254908701C4908700121244801F052FA07
:101B500000F08AF809E009E01D48007802F06EFA0A
:101B60001B49087000F080F800BF00BF06480078ED
:101B7000102805D100200549087000F075F800E034
:101B800070E600BF1CBD00003C060020440600209B
:101B9000450600206D6F64653A0000003F06002096
:101BA000766F6963653A00005D06002064657465C0
:101BB0006374696F6E3A00005B0600204F46460072
:101BC0004F4E000074696D656B65657065723A0013
:101BD0005C0600205E060020240000200004004077
:101BE0007047000070B5002100230F22C47804B3B1
:101BF000154C246804F4E064C4F5E064210AC1F1E2
:101C00000403CA40447804FA03F184781440214361
:101C100009010E4C0678A155047804F01F05012433
:101C2000AC4005786D11AD0005F1E025C5F8004127
:101C300009E0047804F01F050124AC40044D067847
:101C4000761145F8264070BD0CED00E000E400E0A0
:101C500080E100E002490143024A11607047000040
:101C60000000FA050CED00E070B500240CE0002542
:101C700006E00020074901EBC5010855681CC5B204
:101C8000802DF6DB601CC4B2082CF0DB00F02CF9D0
:101C900070BD00008C06002010B504461CB9002160
:101CA000A62000F04BFB012C03D10021A72000F05F
:101CB00045FB10BD10B500218D2000F03FFB002139
:101CC000102000F03BFB0021AE2000F037FB10BDE0
:101CD00010B500218D2000F031FB0021142000F010
:101CE0002DFB0021AF2000F029FB10BD10B50446EC
:101CF0003CB90021C82000F021FB0021A12000F008
:101D00001DFB012C07D10021C02000F017FB002192
:101D1000A02000F013FB10BDF0B514460B46CF1702
:101D200001EB5777C7F3C702CF1701EB5777FF10C7
:101D3000A1EBC707FEB20123B340DDB24CB1134B98
:101D400003EBC0039B5C2B43104F07EBC007BB5456
:101D50001AE00E4B03EBC0039B5CDB430B4F07EB1E
:101D6000C007BB54094B03EBC0039B5C2B43074FDD
:101D700007EBC007BB54054B03EBC0039B5CDB4385
:101D8000024F07EBC007BB54F0BD00008C060020DB
:101D900008B50121042000F01FFD0320ADF800006C
:101DA00014208DF8030003208DF80200694647488F
:101DB000FEF718FD03214548FEF7AAFD0420ADF803
:101DC000000010208DF8030003208DF80200694602
:101DD0003E48FEF707FD04213C48FEF799FD04212B
:101DE0003A48FEF793FDC820FEF7ABFC04213748C4
:101DF000FEF78EFD0021AE2000F0A0FA002108467B
:101E000000F09CFA0021102000F098FA00214020F8
:101E100000F094FA0021812000F090FA0021CF20F8
:101E200000F08CFA0021A12000F088FA0021C820DF
:101E300000F084FA0021A62000F080FA0021A820FA
:101E400000F07CFA00213F2000F078FA0021D32036
:101E500000F074FA0021084600F070FA0021D52045
:101E600000F06CFA0021802000F068FA0021D920EF
:101E700000F064FA0021F12000F060FA0021DA207D
:101E800000F05CFA0021122000F058FA0021DB205B
:101E900000F054FA0021302000F050FA00212020F8
:101EA00000F04CFA0021022000F048FA00218D20B9
:101EB00000F044FA0021142000F040FAFFF7D4FEAD
:101EC0000021AF2000F03AFA08BD000000080140F0
:101ED00010B50246012000E050430B1EA1F10104A1
:101EE000E1B2F9D110BD000070B500242BE004F17F
:101EF000B001C8B2002100F021FA0021084600F02C
:101F00001DFA0021102000F019FAFEF70BFD7820D1
:101F100000F03CFFFEF732FD402000F037FFFEF7F7
:101F20002DFD002509E0094901EBC501085D00F020
:101F30002DFFFEF723FD681CC5B2802DF3DBFEF7F5
:101F40000BFD601CC4B2082CD1DB70BD8C060020D8
:101F50002DE9FE4F0746884692461C460197CDF86C
:101F60000080082C02D14FF006091FE02046E3173D
:101F700004EB5373DB1021464FEAE47C04EB5C7CFA
:101F80004FEAEC0CA4EBCC0CBCF1000F02D04FF0EC
:101F9000010C01E04FF0000C6344224604EBD27CBC
:101FA0004FEA6C0C03FB0CF303F0FF09AAF12000CD
:101FB000C6B200255EE0082C07D106EB46002F498B
:101FC00001EB400010F805B01DE00C2C07D106EB2A
:101FD00046002B4901EB800010F805B013E0102CEF
:101FE00005D1284800EB061010F805B00BE0182CBE
:101FF00007D106EBC600244901EB800010F805B0BC
:1020000001E0BDE8FE8F002002901CE00BF0010013
:1020100028B1414638460C9AFFF77EFE09E00C983D
:1020200008B9012000E00020024641463846FFF78B
:1020300073FE4FEA6B0B08F1010000F0FF080298F5
:10204000401CC0B2029002980828DFDB781CC7B29F
:10205000082C0BD004EBD4714A100199791A8A42EA
:1020600004D1019F00980830C0B20090DDF80080D4
:10207000681CC5B24D459EDB00BFC2E7604000084A
:1020800088420008FC460008EC4C00082DE9FC4F93
:102090000746884616461C46BB46CDF804802046B7
:1020A000E21704EB5272D2102146E31704EB53738C
:1020B000DB10A4EBC3030BB1012300E000231A449F
:1020C000624392B20092002555E0102C05D12C48B5
:1020D00000EB461010F805A01BE0182C07D106EB0A
:1020E000C600284901EBC00010F805A011E0202C23
:1020F00005D1254800EBC61010F805A009E0402CDA
:1021000005D1224800EB462010F805A001E0BDE80B
:10211000FC8F4FF000091CE00AF0010028B1414695
:1021200038460B9AFFF7F8FD09E00B9808B9012033
:1021300000E00020024641463846FFF7EDFD4FEA39
:102140006A0A08F1010000F0FF0809F1010000F03F
:10215000FF09B9F1080FDFDB781CC7B2A7EB0B0052
:10216000A04204D15F4601980830C0B20190DDF86A
:102170000480681C85B200988542A6DB00BFC6E7D4
:10218000485A000868610008B06100083062000821
:102190002DE9FF4F82B0064691461F46DDE90F4A02
:1021A0004FF0000B082C01D14FF0020B002530E05E
:1021B000781B401EC1B20A20FFF78AFEB9FBF0F07F
:1021C0000A21B0FBF1F201FB1208B8F1000F0ED1A9
:1021D00004EBD4710BEB610101FB0561C8B223462E
:1021E0003022CDE900A40399FFF7B2FE0FE004EB23
:1021F000D4710BEB610101FB0561C8B208F130013C
:10220000CAB22346CDE900A40399FFF7A1FE681CDA
:10221000C5B2BD42CCDB06B0BDE8F08F2DE9FF4F63
:1022200005460E4617461C46DDF838904FF0000A6A
:102230000095B3462046E21704EB5272D2102146B5
:10224000E31704EB5373DB10A4EBC3030BB10123BF
:1022500000E000231A44D4B24FF0000845E000200B
:1022600003903BE00D9810F80A0002900AF101007B
:102270001FFA80FA002001901DE0029800F0010092
:1022800028B14A4631462846FFF746FD0AE0B9F133
:10229000000F01D1012000E000200246314628460F
:1022A000FFF73AFD029840100290701CC6B20198E8
:1022B000401CC0B2019001980828DEDB681CC5B242
:1022C0000098281AB84204D1009D0BF1080000F0D4
:1022D000FF0B5E460398401CC0B203900398B842BF
:1022E000C0DB08F1010000F0FF08A045B7DBBDE846
:1022F000FF8F2DE9F84106460F4614461D46DDF8CE
:102300001C8013E0CDF8008022782B4639463046F9
:10231000FFF71EFE082D02D1B01DC6B205E028460B
:1023200005EBD07106EB6101CEB2641C2078202849
:1023300002DB20787E28E5DDBDE8F88170B5054632
:102340000C46FEF7EFFA782000F020FDFEF716FBB2
:102350001CB1402000F01AFD02E0002000F016FD44
:10236000FEF70CFB284600F011FDFEF707FBFEF719
:10237000F3FA70BD014908627047000000000E4288
:10238000704700007FB516A0006803900020009001
:10239000019002900026042103A801F079F91CE0C5
:1023A000002413E001F066F9012809D101F05CF97D
:1023B00005460DF804501DF804003044C6B203E091
:1023C000042103A801F064F9601CC4B2092CE9DB04
:1023D0009DF80500AC2800D100E0E1E700BF7FBD1B
:1023E000AA0100ABFEB5054600248AE000201023B8
:1023F0001E22014600901846FFF748FE00201023D9
:102400001F22014600902020FFF740FE00201023ED
:102410002022014600903020FFF738FE00201023D4
:102420002122014600904020FFF730FE00201023BB
:102430002222014600905020FFF728FE01201023A1
:1024400053A2002100906020FFF753FF01201023CA
:102450004FA2202100903C20FFF74BFFFFF744FDE7
:10246000FEF7C7FA06460D2E20D104B94CE0032C26
:102470000EDA0120611E282202EBC1010090C8B2D1
:10248000102344A22021FFF734FF601E84B20DE028
:102490000120611E382202EBC1010090C8B2102356
:1024A0003CA22021FFF725FF601E84B2632E23D0BB
:1024B0000D2E21DA022C0DDA01201021CDE90010B9
:1024C000282101EBC401C8B2012332462021FFF7C5
:1024D0005FFE0CE001201021CDE90010382101EB56
:1024E000C401C8B2012332462021FFF751FE2A4819
:1024F00020F81460601C84B2102E02D10024FFF773
:10250000B3FB042CFFF672AF00BF244800882449B7
:1025100021F8150023480078234921F815002348A5
:102520000078234921F815001B4840881A4909887A
:1025300001EB810100EB41001E4921F8150016480E
:10254000C0881549898801EB810100EB41001A49D7
:1025500021F815000020194921F81500084630F827
:102560001500154931F81510124A32F81520CDE939
:10257000002102900E4830F815300B4830F8152035
:10258000074830F815102846FDF760FEFEBD000034
:102590003A0000005F0000000C0B00202A00002021
:1025A000340B00202C000020440B00202D000020C4
:1025B000540B0020640B0020740B0020840B0020BF
:1025C0002DE9FF5F002400258BE0012010231E224F
:1025D000002100901846FFF759FD012010231F220B
:1025E000002100902020FFF751FD01201023202220
:1025F000002100903020FFF749FD01201023182210
:10260000002100904020FFF741FD012010231922F6
:10261000002100905020FFF739FD012010235AA21D
:10262000002100906020FFF764FE0120102356A2D5
:10263000202100903C20FFF75CFEFFF755FCFEF7E1
:10264000D8F90646102E20D104B94DE0032C0EDA3D
:102650000120611E282202EBC1010090C8B21023A4
:102660004AA22021FFF745FE601E84B20DE0012042
:10267000611E382202EBC1010090C8B2102343A2B0
:102680002021FFF736FE601E84B2632E23D00D2E6C
:1026900021DA022C0DDA01201021CDE900102821C9
:1026A00001EBC401C8B2012332462021FFF770FDBF
:1026B0000CE001201021CDE90010382101EBC4010C
:1026C000C8B2012332462021FFF762FD304820F8CE
:1026D0001460601C84B20E2E03D10024FFF7C4FAEC
:1026E00002E0042CFFF671AF00BF2A4807882A4891
:1026F00090F80080294890F8009025488078244977
:10270000097801EB810100EB410000F0FF0A20484D
:1027100080791F49097901EB810100EB410000F04C
:10272000FF0B00200390039853464A464146CDE9EB
:1027300000B0384600F072FA002520E0184830F862
:102740001500D0B1174830F81500174931F81510A9
:10275000164A32F81520DFF858C0CDE90021029062
:102760003CF81530DFF84CC03CF81520DFF830C0DD
:102770003CF81510E8B2FDF769FD681C85B2042D20
:10278000DCDBBDE8FF9F00003A0000005F000000B6
:10279000640600202A0000202C0000202D000020CC
:1027A000340B0020840B0020740B0020640B0020ED
:1027B000540B0020440B002029B1064AD269024381
:1027C000044BDA6104E0034AD2698243014BDA61C7
:1027D000704700000010024029B1064A9269024386
:1027E000044B9A6104E0034A92698243014B9A6167
:1027F0007047000000100240014908607047000067
:102800004004424230B500210022002400232D4D17
:102810006D6805F00C0121B1042905D0082923D1E8
:1028200005E0294D056022E0274D05601FE0254D9C
:102830006D6805F47012234D6D6805F4803402252F
:1028400005EB92421CB9214D554305600BE01D4D2F
:102850006D6805F400351DB11C4D5543056002E05F
:10286000194D5543056002E0174D056000BF00BFDC
:10287000144D6D6805F0F0010909154D6B5C056894
:10288000DD4045600F4D6D6805F4E061090A104DAB
:102890006B5C4568DD4085600A4D6D6805F46051EC
:1028A000C90A0B4D6B5C4568DD40C560054D6D6820
:1028B00005F44041890B074D6B5CC568B5FBF3F52A
:1028C000056130BD0010024000127A0000093D0091
:1028D000000000201000002000210B4A11700A4A5D
:1028E000203A82F82010012802D0042808D103E001
:1028F0000121054A117004E00521034A117000E02E
:1029000000BF00BF7047000020100240014908606E
:10291000704700003C0442420249096A0143014AEF
:102920001162704700100240024909888143014A40
:1029300011807047042800400348008840F01000D0
:1029400001490880704700000428004003480088BF
:102950004FF6EF7108400149088070470428004095
:1029600070B500260024002500F08AF806463A4893
:10297000B6FBF0F439480088A0423DD037490C80BE
:1029800040F2B27510E02846FEF716F840B1B4F5F3
:10299000B77F02D3A4F5B77404E0681C85B206E0E3
:1029A000A4F26D14681C85B2B4F5B67FEBD800BFF5
:1029B0002B480580002516E029480088FDF7FCFF1C
:1029C00030B1012D04D11D2C01D31D3C09E00CE0D8
:1029D0002448405DA04203D82248405D241A00E00C
:1029E00003E0681C85B21C2CE6D200BF681C1E499F
:1029F0000870601C1D4908701748B6FBF0F100FB19
:102A000011644FF46160B4FBF0F0194908704FF4A1
:102A10006160B4FBF0F100FB11403C21B0FBF1F030
:102A2000144908704FF46160B4FBF0F100FB1140F1
:102A30003C21B0FBF1F201FB12000F4908700B487A
:102A40000278094801780648008800F035F80B49FB
:102A50000870002070BD000080510100320000208D
:102A60002A000020544000082C0000202D000020E7
:102A70002E0000202F000020300000203100002018
:102A8000002103480188001F008841EA0040704788
:102A90001C28004001460020064A12880A40D0B295
:102AA000044A121F12880A4012B108B1012000E046
:102AB0000020704704280040F0B503460C46154638
:102AC000642093FBF0F0C6B2642093FBF0F700FBA8
:102AD0001730C1B2132E02DD01F16400C1B2084605
:102AE000CF1701EB977701EBA707BAB2072092FB4C
:102AF000F0F700FB172082B25719601EDFF82CC0D8
:102B00001CF80000384482B2CF1701EB9777BF1052
:102B1000A1EB87071FB9032C01DA501E82B20720F0
:102B200092FBF0F700FB1720C0B2F0BD4840000850
:102B300010B50120FFF7AEFF08B1FFF711FF02202B
:102B4000FFF7A8FF0520FFF7EFFE00F0E9F810BD42
:102B500029B1064A12880243044B1A8004E0034A52
:102B600012888243014B1A80704700000028004001
:102B700010B5002401214FF0C050FFF71DFE0120C9
:102B8000FFF7F8FB0420FDF7ADFB45F25101884249
:102B900025D0FDF79FFB0120FFF79EFE4FF48070CC
:102BA000FFF7BAFE0120FFF7B1FE00F0B9F800F020
:102BB000C1F801210320FFF7CBFF00F0B1F8FFF7C8
:102BC000BBFE47F6FF7000F09BF800F0A9F8FFF796
:102BD000BDFE45F251010420FDF792FB07E000F035
:102BE000A9F801210846FFF7B3FF00F099F800F0BB
:102BF00004F8FFF7B5FE002010BD08B503208DF8DE
:102C0000000000208DF801008DF8020001208DF8F1
:102C100003006846FEF7E6FF08BD00002DE9F05FFF
:102C200006460F4690469946DDE90AAB0024B6F504
:102C3000FA6F03DB40F63300864202DD0120BDE877
:102C4000F09F40F2B2750AE02846FDF7B5FE10B1DC
:102C50002048044401E020480444681C85B2B54281
:102C6000F2DB781EC7B2002510E01C48405D40F240
:102C7000A321484304EBC0143046FDF79DFE18B174
:102C8000012D01D116480444681C85B2BD42ECDB1D
:102C9000A8F1010040F2A321484304EBC014C9EBA2
:102CA0004910C0EB092004EB0014CAEB0A1004EB36
:102CB00080045C4401214FF0C050FFF77DFD0120EE
:102CC000FFF758FB204600F00DF800F029F800202F
:102CD000B5E700000085E2018033E10154400008BF
:102CE0008051010000B50246FFF726FE100C034993
:102CF0000880091D0A80FFF729FE00BD1828004042
:102D000000B50246FFF718FEC2F3034003490880EE
:102D1000091D0A80FFF71AFE00BD000008280040C8
:102D200000BF0348008800F020000028F9D0704759
:102D300004280040074800884FF6F771084005490D
:102D4000088000BF0348008800F008000028F9D080
:102D5000704700000428004010B504460948007878
:102D600010B1012808D103E02046FDF7FDFA07E085
:102D70002046FFF737FB03E02046FDF7F5FA00BFDA
:102D800000BF10BD3F0600207047000070B504462C
:102D900000251BE004F0800020B102210D48FDF762
:102DA000B7FD03E002210B48FDF7B0FDFDF7FCFD88
:102DB00001210848FDF7ACFDFDF7F6FD01210548AE
:102DC000FDF7A4FD6006040E681CC5B2082DE1DB0A
:102DD00070BD00000008014010B500F001F810BD02
:102DE0000CB50020019000903348006840F480301A
:102DF0003149086000BF3048006800F4003000909E
:102E00000198401C0190009818B90198B0F5A06F86
:102E1000F1D12948006800F4003010B10120009081
:102E200001E0002000900098012843D12348006869
:102E300040F01000214908600846006820F00300B7
:102E400008600846006840F0020008601A484068C0
:102E5000194948600846406848600846406840F4A0
:102E6000806048600846406820F47C10486008464E
:102E7000406840F4E81048600846006840F0807000
:102E8000086000BF0C48006800F000700028F9D00E
:102E90000948406820F00300074948600846406838
:102EA00040F00200486000BF0348406800F00C009A
:102EB0000828F9D10CBD000000100240002002409B
:102EC00008B5FEF7D1FE012010230F221421009037
:102ED0002220FFF7DBF8012010231A46142100906E
:102EE0003220FFF7D3F80120102311222421009073
:102EF0002220FFF7CBF8012010231222242100907A
:102F00003220FFF7C3F8FEF7EFFF4FF4FA60FDF74A
:102F100018FCFEF7A9FE08BD7047000010B5134865
:102F2000006840F0010011490860084640681049F7
:102F300008400E494860084600680E4908400B49A1
:102F400008600846006820F4802008600846406851
:102F500020F4FE0048604FF41F008860FFF73CFF3C
:102F60004FF000600449086010BD000000100240EE
:102F70000000FFF8FFFFF6FE08ED00E010B50121AC
:102F8000880700F043F8012814D10B480088401C42
:102F90000949088008464088401C488008468088C7
:102FA000401C88800846C088401CC88001218807D2
:102FB00000F01DF810BD00001400002010B5012124
:102FC000074800F023F8012809D10648007810B915
:102FD0000120044908700121014800F008F810BDE3
:102FE0000004004024000020CA4302827047CA4304
:102FF0000282704721B1028842F00102028004E09F
:1030000002884FF6FE731A400280704730B50246C0
:10301000002000230024158A05EA0103958905EAAA
:10302000010413B10CB1012000E0002030BD1AB141
:1030300083890B43838102E083898B4383817047BB
:1030400001894FF6F8721140018170470022028811
:103050001D4B98420ED01D4B98420BD0B0F1804FC3
:1030600008D01B4B984205D01A4B984202D01A4BFD
:10307000984204D14FF68F731A404B881A43174B6E
:10308000984207D0164B984204D04FF6FF431A409F
:10309000CB881A4302808B8883850B8803850A4B73
:1030A00098420BD0094B984208D00E4B984205D05D
:1030B0000D4B984202D00D4B984201D10B7A0386FA
:1030C0000123838270470000002C0140003401403E
:1030D0000004004000080040000C004000100040C8
:1030E00000140040004001400044014000480140FD
:1030F0002DE9FF5F002600BF5EE0012010231E22A5
:10310000002100901846FEF7C1FF012010231F2266
:10311000002100902020FEF7B9FF0120102320227B
:10312000002100903020FEF7B1FF0120102318226B
:10313000002100904020FEF7A9FF01201023192252
:10314000002100905020FEF7A1FF0120102358A27B
:10315000002100906020FFF7CCF8FEF7C5FEFDF7D8
:1031600048FC0546102D0DD106B927E00120711E3F
:10317000C9060090080E10234EA22021FFF7B9F8CF
:10318000701E86B2632D11D00D2D0FDA0120102193
:10319000CDE90010F106080E01232A462021FEF792
:1031A000F7FF454820F81650701C86B20E2D03D14B
:1031B0000026FEF759FD01E00E2E9ED100BF3E48CD
:1031C00000884FF47A7148433B49498801EBC102BA
:1031D00002EB011100EB81003749898801EB810185
:1031E00000EB41003449C988084487B23248807AEC
:1031F0003149097A01EB810100EB410000F0FF0841
:103200002D48807B2C49097B01EB810100EB4100BB
:1032100000F0FF092848807C2749097C01EB8101E7
:1032200000EB410000F0FF0A2348807D2249097D20
:1032300001EB810100EB410000F0FF0B1E48807E96
:103240001D49097E01EB810100EB4100C0B20390F2
:10325000039853464A464146CDE900B03846FFF749
:10326000DDFC002420E0154830F81400D0B11448EB
:1032700030F81410134830F81400134A32F81420B0
:10328000DFF848C0CDE9002002913CF81430DFF8A7
:1032900040C03CF81420DFF824C03CF81410E0B221
:1032A000FCF7D4FF601C84B2042CDCDBBDE8FF9F7C
:1032B0003A0000005F00000064060020340B00208C
:1032C000840B0020740B0020640B0020540B0020A2
:1032D000440B00201FB501210846FFF76DFA0121BC
:1032E0000220FFF769FA4FF08040FFF7A9FE2E4851
:1032F000FFF7A6FE0020ADF80A00ADF8060042F286
:103300000F70ADF8080041F61F40ADF80400002032
:103310008DF80C0001A94FF08040FFF797FE49F6A9
:103320003F40ADF8080041F61F40ADF8040001A988
:103330001D48FFF78BFE012211469007FFF777FE2D
:10334000012211461848FFF772FE01218807FFF796
:103350004BFE01211448FFF747FE4FF4A060FEF733
:1033600079FC1C208DF8000001208DF8030002205C
:103370008DF801008DF802006846FEF733FC1D2031
:103380008DF8000003208DF801008DF802006846DA
:10339000FEF728FC01218807FFF72CFE01210248D7
:1033A000FFF728FE1FBD00000004004010B540F2EA
:1033B0002551094800F05AF801280CD1064800F0C0
:1033C0002DF90649087001200549087040F2255181
:1033D000014800F023F810BD00380140250000200E
:1033E0002600002010B540F22551094800F03EF8B3
:1033F00001280CD1064800F011F906490870012097
:103400000549087040F22551014800F007F810BD49
:1034100000480040270000202800002010B50022AE
:10342000002340F66A14A14200D100BF0A12012411
:103430009440A3B2DC43048010BD21B1828942F4E0
:103440000052828104E082894DF6FF731A40828126
:10345000704702460020B1F5007F00D100BF1388FD
:103460000B400BB1012000E00020704770B5024610
:10347000002400230025002040F66A16B14200D146
:1034800000BFC1F3421501F01F03012606FA03F342
:10349000012D02D19689334006E0022D02D1168A11
:1034A000334001E0968A33400C12012606FA04F4F8
:1034B0001688344013B10CB1012000E0002070BD2B
:1034C000F0B50346002400260025002040F66A17C8
:1034D000B94200D100BF1846C1F3421401F01F06E3
:1034E000012707FA06F5012C01D10C3004E0022C6B
:1034F00001D1103000E014301AB107682F43076083
:1035000002E00768AF430760F0BD00002DE9F04717
:1035100086B005460E460024A24600BFA1460027FD
:10352000B08900B100BF2F462C8A4CF6FF700440D2
:10353000F08804432C82AC894EF6F3100440B08826
:1035400031890843718908430443AC81AC8A4FF642
:10355000FF400440B0890443AC8201A8FFF752F950
:103560001F48874202D1DDF810A001E0DDF80CA071
:10357000A88900F4004040B10AEBCA0000EB0A1031
:1035800031684900B0FBF1F807E00AEBCA0000EB34
:103590000A1031688900B0FBF1F86420B8FBF0F044
:1035A00004012009642101FB1089A88900F400406E
:1035B00040B1322000EBC900B0FBF1F000F0070091
:1035C000044308E0322000EB09106421B0FBF1F065
:1035D00000F00F0004432C8106B0BDE8F087000026
:1035E0000038014070B504460E4606B93C262671E7
:1035F00000206071002505E06079615D084460711C
:10360000681CC5B2052DF7DB002504E0605D00F005
:103610004DF8681CC5B2062DF8DB70BD01468888E0
:10362000C0F308007047C1F308028280704770B58C
:1036300004460E46E67000202071002505E0207942
:10364000615D08442071681CC5B2042DF7DB0025BC
:1036500004E0605D00F02AF8681CC5B2052DF8DBB7
:1036600070BD00BFFEE70000014800787047000011
:103670002500002005480078012804D100200349D6
:103680000870012070470020FCE7000026000020A1
:1036900070B505460E46002404E0285D00F006F8EB
:1036A000601C84B2B442F8DB70BD000010B5044663
:1036B00021460548FFF7B7FF00BF80210248FFF70A
:1036C000C8FE0028F9D010BD00380140014800783C
:1036D000704700002700002005480078012804D129
:1036E000002003490870012070470020FCE700001B
:1036F0002800002010B5044621460548FFF793FF37
:1037000000BF80210248FFF7A4FE0028F9D010BDB9
:103710000048004000B587B001218803FFF75CF83E
:1037200001210420FFF758F818208DF81B004FF4F2
:103730000070ADF8180003208DF81A0006A948485B
:10374000FDF750F848208DF81B004FF48060ADF86D
:10375000180003208DF81A0006A94148FDF742F829
:103760004FF4165002900020ADF814000C20ADF874
:1037700012000020ADF81000ADF80E00ADF80C00FE
:1037800002A93848FFF7C2FE012240F22551354810
:10379000FFF796FE01218804FFF70EF801210820AB
:1037A000FFF71AF818208DF81B004FF48060ADF871
:1037B000180003208DF81A0006A92B48FDF712F80F
:1037C00048208DF81B004FF40060ADF8180003206E
:1037D0008DF81A0006A92448FDF704F84FF4165096
:1037E00002900020ADF814000C20ADF8120000206B
:1037F000ADF81000ADF80E00ADF80C0002A91B48A2
:10380000FFF784FE012240F225511848FFF758FEC9
:103810004FF4A060FEF71EFA25208DF80400012069
:103820008DF807008DF805008DF8060001A8FEF759
:10383000D9F901210B48FFF700FE27208DF804007D
:1038400001208DF807008DF805008DF8060001A80D
:10385000FEF7C8F901210548FFF7EFFD07B000BDED
:103860000008014000380140000C014000480040C1
:1038700002E008C8121F08C1002AFAD17047704739
:10388000002001E001C1121F002AFBD170472DE981
:10389000F04105460E460027102E02D11020BDE84B
:1038A000F08112E0FDF7A5F80446102C01D1E0B23A
:1038B000F5E742F6E06703E0102C01D1E0B2EEE755
:1038C000381EA7F101018FB2F6D1281EA5F1010122
:1038D0008DB2E7D100BFE2E708B501210820FEF76D
:1038E0007BFF01210420FEF777FF10208DF80300F5
:1038F0000120ADF8000003208DF80200694612484F
:10390000FCF770FF10208DF80300E020ADF80000F8
:1039100003208DF8020069460C48FCF763FF48203D
:103920008DF803001820ADF8000069460748FCF741
:1039300059FF48208DF803006020ADF8000069466B
:103940000148FCF74FFF08BD000C01400008014092
:103950001CB5FEF71DFA0020FEF79EF90020FEF7C9
:10396000C5F9FFF7B9FFFFF703F9FFF7D3FEFCF73F
:10397000D7FCFFF7AFFCFE480178FE48FFF757FE83
:103980000020142113231222CDE90010032140F25C
:10399000E770FFF743F91EE3FEF7E2FF00287DD151
:1039A000F54800884FF47A7190FBF1F40120102162
:1039B00003462246CDE9001005210A20FEF7E8FB68
:1039C000ED4800884FF47A7190FBF1F201FB120090
:1039D000642190FBF1F40120102103462246CDE939
:1039E000001005211220FEF7D3FBE3480088642174
:1039F00090FBF1F201FB12000A2190FBF1F401208F
:103A0000102103462246CDE9001005211A20FEF7B9
:103A1000BFFBD94800880A2190FBF1F201FB120498
:103A20000120102103462246CDE900100521222065
:103A3000FEF7AEFB012010230022052100902A2072
:103A4000FEF724FBCD480078642190FBF1F201FBE6
:103A500012000A2190FBF1F40120102103462246B6
:103A6000CDE9001005213A20FEF792FBC34800780B
:103A70000A2190FBF1F201FB120401201021034600
:103A80002246CDE9001005214220FEF781FB0120EE
:103A900010230246052100904A2000E0ADE0FEF729
:103AA000F5FAB7480078642190FBF1F201FB1200AF
:103AB0000A2190FBF1F40120102103462246CDE9B2
:103AC000001005215A20FEF763FBAD4800780A215B
:103AD00090FBF1F201FB1204012010210346224663
:103AE000CDE9001005216220FEF752FB01201023D2
:103AF0000222052100906A20FEF7C8FAA14800784A
:103B0000642190FBF1F201FB12000A2190FBF1F419
:103B10000120102103462246CDE900101C2122205D
:103B2000FEF736FB974800780A2190FBF1F201FB83
:103B300012040120102103462246CDE900101C2169
:103B40002A20FEF725FB012008238FA221210090C7
:103B50003220FEF7CEFB8D480078642190FBF1F215
:103B600001FB12000A2190FBF1F401201021034611
:103B70002246CDE900101C213A20FEF709FB8348BC
:103B800000780A2190FBF1F201FB120401201021C0
:103B900003462246CDE900101C214220FEF7F8FA28
:103BA0000120082378A2212100904A20FEF7A1FBE2
:103BB00077480078642190FBF1F201FB12000A21A2
:103BC00090FBF1F40120102103462246CDE90010BC
:103BD0001C215220FEF7DCFA6D4800780A2190FB88
:103BE000F1F201FB12040120102103462246CDE927
:103BF00000101C215A20FEF7CBFAFCF7FAFE6549AB
:103C00000870084600780D2815D100201021CDE954
:103C100000106148008861490988421A05232D2156
:103C20002220FEF7B5FAFEF75FF94FF47A70FCF741
:103C300088FDFEF719F8574800780E287DD15848BE
:103C4000007800F0FBF9564908700846007810B17A
:103C500001286ED102E0FEF707F86DE00120102385
:103C600003222D2100902C20FEF710FA01201023B2
:103C700004222D2100903C20FEF708FA49480078E4
:103C8000072844D2DFE800F03A040D161F2831005F
:103C90000120102305222D2100904C20FEF7F6F97B
:103CA00041E00120102306222D2100904C20FEF738
:103CB000EDF938E00120102307222D2100904C203F
:103CC000FEF7E4F92FE00120102308222D210090B7
:103CD0004C20FEF7DBF926E00120102309222D21DC
:103CE00000904C20FEF7D2F91DE0012010230A229B
:103CF0002D2100904C20FEF7C9F914E0012010237B
:103D00000B222D2100904C20FEF7C0F90BE0012082
:103D100010210346CDE90010224802782D214C20C5
:103D2000FEF736FA00BF00BFFEF7DEF804E004E05D
:103D3000FFE7FDF799FF00BF00BF164800780E2887
:103D40007ED1194800780128FAD1FDF7C1FFFDF7AF
:103D50008BFF0F4800780D490978CDE9001009481C
:103D600003780748027805480178034800881DE079
:103D70005D0600205E0600202A0000202C000020A6
:103D80002D0000202E0000203A0000002F0000200F
:103D9000300000203C0600201C0000201400002001
:103DA00042060020310000205A060020FCF7F8F9F6
:103DB00004468948007889490978CDE90010884887
:103DC0000378884802788848017888480088FCF79A
:103DD000E7F9201A86490880084600884FF4616197
:103DE00090FBF1F083490880814800884FF46161BD
:103DF00090FBF1F201FB12003C2190FBF1F07E49B7
:103E00000880012010232F22194600902020FEF761
:103E10003DF9012010233022194600901046FEF78C
:103E200035F9012010233122194600904020FEF779
:103E30002DF901201023322219460090502000E075
:103E40003BE0FEF723F9012010210223CDE9001009
:103E50006848028820210846FEF79AF901201021BF
:103E60000223CDE900106448028820214020FEF79B
:103E70008FF9012010231122202100903020FEF71D
:103E800005F9012010233322202100905020FEF755
:103E9000FDF8FEF729F800205249087050490870D3
:103EA0004E4908704C49087040F6B830FCF749FCA0
:103EB000FDF7DAFE002051490870514800781028BB
:103EC00008D1FDF7D1FE00204E4908704E49087018
:103ED000FCF746FEFEF708F84C4800884C49098874
:103EE000884205D14948008810B10020FCF722FB28
:103EF0004648408846494988884205D14348408819
:103F000010B10120FCF716FB4048808840498988A1
:103F1000884205D13D48808810B10220FCF70AFB99
:103F20003A48C0883A49C988884205D13748C0888C
:103F300010B10320FCF7FEFA36480078162807D1A6
:103F40003548007820B93548007808B9FEF7B8FF41
:103F500033480078012808D12F48007828B92F4825
:103F6000007810B90520FCF7E5FA2E480078012802
:103F700031D12D48FCF78EFB2B488078282811DDA5
:103F8000FDF772FE0120102328A220210090084690
:103F9000FEF7AFF9FDF7A8FF4FF47A70FCF7D1FBFD
:103FA000FDF762FE204800783C2811DDFDF75CFE3D
:103FB000012010231FA2202100900846FEF799F946
:103FC000FDF792FF4FF47A70FCF7BBFBFDF74CFE58
:103FD000002014490870DFE452060020510600203A
:103FE000500600204F0600202C0000202A00002050
:103FF0005406002056060020580600205A060020CD
:104000003C0600203E0600203D0600201C0000204B
:10401000140000202E0000202F000020300000207F
:104020005C060020240000204A06002074656D70A4
:104030002121000068756D6921210000012801D14E
:10404000002000E00120704700030306010406027F
:10405000050003051F1C1F1E1F1E1F1F1E1F1E1FE6
:104060000000000000000000002F0000000007001A
:10407000070000147F147F1400242A7F2A12006294
:104080006408132300364955225000000503000040
:1040900000001C224100000041221C000014083EC8
:1040A00008140008083E0808000000A0600000088E
:1040B00008080808000060600000002010080402E2
:1040C000003E5149453E0000427F400000426151A0
:1040D0004946002141454B31001814127F1000273A
:1040E00045454539003C4A494930000171090503FD
:1040F00000364949493600064949291E000036362E
:104100000000000056360000000814224100001490
:10411000141414140000412214080002015109066D
:1041200000324959513E007C1211127C007F4949EE
:104130004936003E41414122007F4141221C007F1F
:1041400049494941007F09090901003E4149497A2D
:10415000007F0808087F0000417F410000204041A7
:104160003F01007F08142241007F40404040007F13
:10417000020C027F007F0408107F003E4141413E57
:10418000007F09090906003E4151215E007F09199F
:1041900029460046494949310001017F0101003F9C
:1041A0004040403F001F2040201F003F4038403F1C
:1041B0000063140814630007087008070061514980
:1041C000454300007F41410000552A552A55000013
:1041D00041417F0000040201020400404040404091
:1041E000000001020400002054545478007F484429
:1041F000443800384444442000384444487F003860
:104200005454541800087E0901020018A4A4A47C88
:10421000007F080404780000447D40000040808452
:104220007D00007F102844000000417F4000007C9A
:1042300004180478007C08040478003844444438A6
:1042400000FC242424180018242418FC007C0804F2
:10425000040800485454542000043F444020003CCB
:104260004040207C001C2040201C003C4030403C52
:10427000004428102844001CA0A0A07C00446454E2
:104280004C44141414141414000000000000000026
:10429000000000000000FC00000000000200000020
:1042A000000C020C020000000000000090D0BCD006
:1042B000BC900003000300001824FE448C0003029D
:1042C000070201001824D8B04C800003000102014D
:1042D000C038E438E00001020201020208060000D2
:1042E0000000000000000000000000F804020000D0
:1042F00000010204000204F80000000402010000B2
:104300009060F86090000000010000002020FC2078
:10431000200000000100000000000000000008066E
:1043200000000000202020202000000000000000ED
:104330000000000000000002000000000080601C7F
:104340000200040300000000F8040404F800010265
:10435000020201000008FC0000000002030200004D
:1043600018844424180003020202020008042424D2
:10437000D80001020202010040B088FC8000000069
:10438000000302003C242424C400010202020100B4
:10439000F824242CC0000102020201000C04E41CD9
:1043A0000400000003000000D8242424D8000102E7
:1043B0000202010038444444F800000302020100F4
:1043C00000001000000000000200000000002000BB
:1043D00000000000060000000020508804020000D9
:1043E00000000102909090909000000000000000FA
:1043F0000002048850200002010000001804C424B8
:104400001800000002000000F804E494F800010223
:104410000202020000E09CF08000020300000302A0
:1044200004FC2424D800020302020100F80404045E
:104430000C0001020202010004FC0404F800020363
:104440000202010004FC24740C00020302020300B7
:1044500004FC24740C00020302000000F008044471
:10446000CC4000010202010004FC2020FC040203F5
:10447000000003020404FC04040002020302020020
:10448000000404FC040406040403000004FC24D01B
:104490000C0402030200030204FC040000000203F7
:1044A00002020203FC3CC03CFC00030003000300CA
:1044B00004FC30C4FC04020302000300F8040404FA
:1044C000F80001020202010004FC24241800020387
:1044D00002000000F8848404F800010202070500CD
:1044E00004FC2464980002030200030218242444FC
:1044F0008C000302020201000C04FC040C00000208
:104500000302000004FC0000FC04000102020100A0
:10451000047C80E01C040000030000001CE03CE080
:104520001C00000300030000049C609C04000203C4
:1045300000030200041CE01C04000002030200004F
:104540000C84641C04000203020203000000FE024B
:104550000200000007040400000E30C0000000004C
:1045600000010200000202FE000000040407000037
:104570000004020400000000000000000000000031
:1045800000000808080808080000020000000000F9
:10459000000000000040A0A0C000000102020302D1
:1045A00004FC2020C00000030202010000C0202003
:1045B000600000010202020000C02024FC00000193
:1045C0000202030200C0A0A0C0000001020202001B
:1045D0000020F82424040002030202000040A0A0EE
:1045E000602000070A0A0A0404FC2020C00002031D
:1045F000020003020020E4000000000203020000A9
:10460000000020E4000008080807000004FC80E027
:1046100020200203020003020404FC000000020246
:1046200003020200E020E020C000030003000300BA
:1046300020E02020C00002030200030200C020206E
:10464000C00000010202010020E02020C000080F8D
:104650000A02010000C02020E0000001020A0F0849
:1046600020E0402020000203020000000060A0A023
:1046700020000002020203000020F82000000000D9
:104680000102020020E00020E0000001020203021B
:1046900020E0208060200000030100006080E080B6
:1046A000600000030003000020608060200002031F
:1046B0000003020020E020806020080807010000BD
:1046C0000020A0602000000203020200000020DEA3
:1046D0000200000000070400000000FF00000000CE
:1046E000000F00000002DE200000000407000000B0
:1046F00002010204040200000000000000000000AB
:10470000000000000000000000000000000000F8B1
:1047100000000000000000333000000000100C0614
:10472000100C0600000000000000000040C07840AF
:10473000C0784000043F04043F040400007088FC7B
:1047400008300000001820FF211E0000F008F000D3
:10475000E018000000211C031E211E0000F0088844
:10476000700000001E2123241927211010160E00AE
:10477000000000000000000000000000000000E059
:10478000180402000000000718204000000204186E
:10479000E00000000040201807000000404080F0CA
:1047A000804040000202010F01020200000000F000
:1047B000000000000101011F0101010000000000D4
:1047C0000000000080B07000000000000000000049
:1047D00000000000000101010101010100000000D2
:1047E0000000000000303000000000000000000069
:1047F00080601804006018060100000000E0100846
:104800000810E000000F102020100F00001010F81A
:10481000000000000020203F202000000070080859
:1048200008887000003028242221300000300888D9
:10483000884830000018202020110E000000C02001
:1048400010F8000000070424243F240000F8088822
:10485000880808000019212020110E0000E01088AF
:1048600088180000000F112020110E0000380808E1
:10487000C83808000000003F0000000000708808F1
:1048800008887000001C222121221C0000E0100872
:104890000810E0000000312222110F00000000C0CB
:1048A000C000000000000030300000000000008068
:1048B0000000000000008060000000000000804058
:1048C0002010080000010204081020004040404071
:1048D00040404000040404040404040000081020C4
:1048E0004080000000201008040201000070480809
:1048F0000808F0000000003036010000C030C82871
:10490000E810E0000718272423140B000000C0382B
:10491000E0000000203C23020227382008F88888A5
:1049200088700000203F202020110E00C0300808B1
:1049300008083800071820202010080008F8080888
:104940000810E000203F202020100F0008F8888881
:10495000E8081000203F20202320180008F888884D
:10496000E8081000203F200003000000C0300808C5
:104970000838000007182020221E020008F808004E
:104980000008F808203F210101213F20000808F815
:10499000080800000020203F202000000000080838
:1049A000F8080800C08080807F00000008F888C0F8
:1049B00028180800203F20012638200008F80800A9
:1049C00000000000203F20202020300008F8F800E0
:1049D000F8F80800203F003F003F200008F830C0F2
:1049E0000008F808203F200007183F00E0100808E2
:1049F0000810E0000F10202020100F0008F8080811
:104A00000808F000203F210101010000E010080823
:104A10000810E0000F18242438504F0008F8888848
:104A200088887000203F2000030C30200070880828
:104A3000080838000038202121221C00180808F836
:104A4000080818000000203F2000000008F80800B7
:104A50000008F808001F202020201F000878880088
:104A600000C83808000007380E010000F80800F8F8
:104A70000008F800033C0700073C030008186880A2
:104A80008068180820302C03032C30200838C80018
:104A9000C83808000000203F200000001008080867
:104AA000C83808002038262120201800000000FE09
:104AB000020202000000007F40404000000C30C0B5
:104AC00000000000000000010638C00000020202E1
:104AD000FE000000004040407F0000000000040293
:104AE00002020400000000000000000000000000BE
:104AF00000000000808080808080808000020204AE
:104B000000000000000000000000000000008080A5
:104B1000808000000019242222223F2008F8008013
:104B200080000000003F112020110E0000000080D6
:104B300080800000000E1120202011000000008065
:104B40008088F800000E112020103F200000808097
:104B500080800000001F222222221300008080F0AB
:104B6000888888180020203F2020000000008080D6
:104B700080808000006B94949493600008F800801B
:104B800080800000203F210000203F200080989876
:104B9000000000000020203F2020000000000080D6
:104BA0009898000000C08080807F000008F8000016
:104BB00080808000203F24022D302000000808F86B
:104BC000000000000020203F202000008080808026
:104BD00080808000203F20003F20003F80800080B8
:104BE00080800000203F210000203F2000008080C6
:104BF00080800000001F202020201F008080008077
:104C00008000000080FFA12020110E000000008025
:104C100080808000000E112020A0FF808080800016
:104C20008080800020203F21200001000000808043
:104C3000808080000033242424241900008080E038
:104C4000808000000000001F202000008080000005
:104C500000808000001F202020103F2080808000E6
:104C60000080808000010E300806010080800080F6
:104C7000008080800F300C030C300F00008080001B
:104C8000808080000020312E0E3120008080800046
:104C90000080808080818E701806010000808080F6
:104CA000808080000021302C222130000000000094
:104CB000807C020200000000003F40400000000035
:104CC000FF00000000000000FF0000000002027C66
:104CD000800000000040403F00000000000601018D
:104CE00002020404000000000000000000000000B8
:104CF00000000000000000000000000000000000B4
:104D000000000000000000000000000000000000A3
:104D10000000000000F0F0F00000000000000000C3
:104D200000017F010000000000000000001C1C1CAE
:104D30000000000000008060301C8C60301C0C0003
:104D40000000000000000000000000000000000063
:104D50000000000000000000000000E00000000073
:104D600000E000000086E69F86868686E69F860035
:104D700000011F01010101011F010100000080C0AD
:104D80006020F820E0C00000000003070C18FF704E
:104D9000E18100000000070F10107F100F070000D6
:104DA0008060206080000000E02000000F30203094
:104DB0009F70DC371030C0000000100E0300071891
:104DC000101807000000C02020E0C0000000000014
:104DD00080E01F38E88703C43C040000070F181068
:104DE000100B070D1010080000808C4C38000000DC
:104DF00000000000000000000000000000000000B3
:104E000000000000000000000000000000000000A2
:104E1000000080E0300804000000000000FEFF01F8
:104E200000000000000000000000030F18204000F8
:104E300000040830E08000000000000000000000D6
:104E400001FFFE0000000000004020180F030000DA
:104E500000000000000000000000C0000000000092
:104E6000004266663C18FF183C666642000000007F
:104E700000000300000000000000000000008000AF
:104E800000000000001010101010FF101010101083
:104E9000000000000000030000000000000000000F
:104EA0000000000000000000000000000000000002
:104EB0000000000000808C4C380000000000000062
:104EC00000000000000000000000000000101010B2
:104ED0001010101010101000000000000000000062
:104EE00000000000000000000000000000000000C2
:104EF00000000000000000000000000000001C1C7A
:104F00001C00000000000000000000000000000085
:104F1000E0380C000000000080701C03000000005E
:104F20000060380E0100000000000000000080C09A
:104F300060202060C080000000FEFF010000000033
:104F400001FFFE000001070E181010180E070100E7
:104F50000000808080C0E000000000000000000031
:104F600000FFFF000000000000001010101F1F10C5
:104F7000101000000080402020202060C080000031
:104F800000030300804020381F070000001C1A198E
:104F900018181818181F00000080C020202060C0BA
:104FA00080000000000303001010182FE7800000AD
:104FB00000070F10101010180F070000000000006D
:104FC0000000C0E0F000000000C0B088868180FFD3
:104FD000FF808000000000000010101F1F10100054
:104FE0000000E060606060606060000000003F10F2
:104FF00008080818F0E0000000070B101010101C43
:105000000F030000000080C040202020E0C000000E
:1050100000FCFF211008080818F0E0000001070C50
:1050200018101010080F03000000C0E060606060FE
:1050300060E06000000003000000E01807000000CE
:1050400000000000001F1F00000000000080C06082
:105050002020202060C080000087EF2C18183030FE
:1050600068CF830000070F0810101010180F0700FA
:105070000000C0C020202020C0800000001F3F6032
:105080004040402010FFFE0000000C1C10101008D3
:105090000F030000000000000000000000000000FE
:1050A00000000000000E0E0E0000000000000000D6
:1050B000001C1C1C0000000000000000000000009C
:1050C0000000000000000000000C0C0000000000C8
:1050D0000000000000583800000000000000000040
:1050E00000000080402010000000102844820100D1
:1050F0000000000000000000000001020408100091
:105100000000000000000000000000000084848413
:1051100084848484848484000000000000000000F3
:10512000000000000000102040800000000000008F
:105130000000000000000182442810000000100858
:10514000040201000000000000C020201010101018
:1051500030E0C0000003030000F010080C0703005B
:10516000000000001C1C1C0000000000000000C02B
:10517000406020202040C00000FCFF01F00E03C171
:10518000FE03807F0001070E0811111011090402AF
:105190000000000080E0E000000000000000807CD3
:1051A0004340477FF880000010181F1000000000E7
:1051B000131F1C1020E0E02020202060C080000091
:1051C00000FFFF10101010182FE78000101F1F1095
:1051D00010101010180F0700000080C04020202081
:1051E0002060E00000FCFF01000000000000010062
:1051F0000001070E181010100804030020E0E02042
:1052000020202040C080000000FFFF0000000000C0
:1052100001FFFE00101F1F10101018080E070100DC
:1052200020E0E020202020202060800000FFFF10F0
:105230001010107C00000000101F1F101010101024
:105240001018060020E0E020202020206060800070
:1052500000FFFF101010107C00000100101F1F1035
:105260000000000000000000000080C0602020203E
:1052700040E0000000FCFF0100004040C0C1404091
:105280000001070E181010100F0F000020E0E020A2
:105290000000000020E0E02000FFFF1010101010C0
:1052A00010FFFF00101F1F1000000000101F1F1034
:1052B0000000202020E0E02020200000000000006E
:1052C00000FFFF000000000000001010101F1F1062
:1052D0001010000000000000202020E0E02020202E
:1052E00000000000000000FFFF0000000060E08000
:1052F0008080C07F3F00000020E0E020000020A070
:105300006020200000FFFF30187CE3C00000000098
:10531000101F1F10000001131F1C181020E0E020B8
:10532000000000000000000000FFFF00000000007F
:1053300000000000101F1F101010101010180600A1
:1053400020E0E0E000000000E0E0E02000FF013F9E
:10535000FEC0E01E01FFFF00101F1000031F03002E
:10536000101F1F1020E0E0C0000000000020E0201F
:1053700000FF0003071C78E08000FF00101F1000F2
:1053800000000000030F1F00000080C060202060AC
:10539000C080000000FEFF010000000000FFFE00D2
:1053A0000001070E181010180C07010020E0E02083
:1053B0002020202060C0800000FFFF20202020202F
:1053C000301F0F00101F1F10000000000000000021
:1053D000000080C060202060C080000000FEFF014F
:1053E0000000000000FFFE000001070E1111133C39
:1053F0007C67210020E0E0202020202060C0800089
:1054000000FFFF101030F0D0080F0700101F1F1012
:10541000000000030F1C10100080C060202020201E
:105420004040E00000070F0C1818303060E08100A9
:10543000001F0C0810101010180F070080602020AB
:1054400020E0E020202060800100000000FFFF003D
:105450000000000100000000101F1F1000000000ED
:1054600020E0E020000000000020E02000FFFF001E
:10547000000000000000FF0000070F1810101010BF
:10548000100807002060E0E02000000020E060201D
:105490000000077FF88000807C030000000000000F
:1054A000071F1C070000000020E0E02000E0E020D3
:1054B0000020E0200007FFF8E01FFFFCE01F0000D5
:1054C0000000031F0300011F03000000002060E034
:1054D000A0000020E0602000000000038F7CF8C6E0
:1054E000010000000010181E130001171F18100003
:1054F0002060E0E02000000020E0602000000107C4
:105500003EF8E0180700000000000010101F1F10F8
:105510001000000000806020202020A0E0E020009B
:1055200000000000C0F03E0F0300000000101C1F30
:1055300017101010101806000000000000FC0404F2
:10554000040404000000000000FF00000000000050
:1055500000000000007F404040404000000010E09C
:10556000000000000000000000000000031C60803C
:105570000000000000000000000000030C7080002C
:1055800000000404040404FC00000000000000000B
:10559000000000FF00000000000040404040407F4D
:1055A0000000000000000010080C040C08100000AF
:1055B00000000000000000000000000000000000EB
:1055C00000000000000000000000000000000000DB
:1055D00000000000000000000000000000000000CB
:1055E00080808080808080808080808000000004B7
:1055F0000408080000000000000000000000000097
:10560000000000000000000000000000000000009A
:10561000000000000000000000000000000098D81A
:1056200044642424FCF80000000F1F181010100818
:105630001F1F10180020E0F0000000000000000014
:105640000000FFFF180804040CF8F00000001F0F12
:1056500018101010180F03000000000000000000D8
:105660000000000000E0F8180404043C38000000CA
:1056700000030F0C101010100806000000000000BE
:1056800000000020E0F0000000E0F81C0404040822
:10569000FFFF000000030F18101010081F0F080074
:1056A0000000000000000000000000000000E0F822
:1056B000484444444C7870000000030F0C1810104C
:1056C000100804000000000080C0602020E0C0003E
:1056D00000040404FFFF0404040400000000101090
:1056E0001F1F10101000000000000000000000004C
:1056F00000000000000070F88C04048CF874040CA6
:10570000007076CF8D8D8D89C87870000020E0F014
:1057100000000000000000000000FFFF0804040477
:10572000FCF8000000101F1F100000101F1F1000C9
:1057300000000000006060000000000000000404A1
:1057400004FCFC000000000000001010101F1F10DF
:105750001010000000000000000000606000000069
:1057600000000000040404FCFC0000000000C0C0B5
:105770008080C07F3F0000000020E0F000000000BB
:10578000000000000000FFFF80C0F41C04040000C3
:1057900000101F1F1100031F1C101000000020200C
:1057A00020E0F000000000000000000000FFFF000B
:1057B0000000000000001010101F1F10101000004B
:1057C00000000000000000000000000004FCFC08D5
:1057D00004FCFC0804FCFC00101F1F10001F1F101D
:1057E000001F1F100000000000000000000000006B
:1057F0000004FCFC08080404FCF8000000101F1F53
:10580000100000101F1F100000000000000000002A
:105810000000000000E0F0180C04040C18F0E00098
:1058200000030F0C101010100C0F030000000000FC
:1058300000000000000000000004FCFC0804040458
:105840000CF8F0000080FFFF889010101C0F030080
:1058500000000000000000000000000000E0F81C54
:1058600004040408F8FC000000030F1810109088CE
:10587000FFFF8000000000000000000000000000AA
:10588000040404FCFC100804040C0C001010101F8D
:105890001F101010000000000000000000000000B9
:1058A0000000000000003078CCC48484840C1C000C
:1058B00000001E1810101011190F06000000000043
:1058C00000C000000000000000040404FFFF040406
:1058D00004000000000000000F1F1010100C00005A
:1058E0000000000000000000000000000004FCFEBA
:1058F00000000004FCFE000000000F1F181010083C
:105900001F0F080000000000000000000000000061
:1059100000040C3CFCC40000C43C0C04000000006B
:10592000010F1E0E0100000000000000000000003A
:1059300000000000043CFCC400E47CFC84807C0487
:105940000000071F070000071F07000000000000FD
:1059500000000000000000000004041C7CE4C034CF
:105960001C0404000010101C1601131F1C1810004A
:1059700000000000000000000000000000040C3CDB
:10598000FCC400C43C0404000000C080C1370E0108
:105990000000000000000000000000000000000007
:1059A00000001C0404C4F47C1C0400000000101C53
:1059B0001F17111010180E0000000000000000F862
:1059C0000C04000000000000001028EF00000000A0
:1059D000000000000000003F6040000000000000E8
:1059E0000000FF0000000000000000000000FF00B9
:1059F00000000000000000000000FF0000000000A8
:105A00000000040CF800000000000000000000008E
:105A1000EF28100000000000000040603F00000080
:105A200000000000001806020204081020203008C0
:105A30000000000000000000000000000000000066
:105A40000000000000000000002018C74444444447
:105A5000FC44444444040000040404070404040413
:105A6000FF04040404040400000000FE2222222299
:105A700022222222FE0000008040300F0202020299
:105A8000020242827F000000000000FE82828282C9
:105A9000828282FE00000000000000FF4040404083
:105AA000404040FF00000000000000BE2A2A2AEA11
:105AB0002A2A2A3E00000000004442494949497F01
:105AC00049494949414000000004FF242424FF04BF
:105AD00000FE222222FE000088482F090919AF4843
